{
  "_format": "hh-sol-artifact-1",
  "contractName": "MyBlogNFT",
  "sourceName": "contracts/MyBlogNFT.sol",
  "abi": [
    {
      "inputs": [
        {
          "internalType": "address",
          "name": "initialOwner",
          "type": "address"
        }
      ],
      "stateMutability": "nonpayable",
      "type": "constructor"
    },
    {
      "inputs": [
        {
          "internalType": "address",
          "name": "sender",
          "type": "address"
        },
        {
          "internalType": "uint256",
          "name": "tokenId",
          "type": "uint256"
        },
        {
          "internalType": "address",
          "name": "owner",
          "type": "address"
        }
      ],
      "name": "ERC721IncorrectOwner",
      "type": "error"
    },
    {
      "inputs": [
        {
          "internalType": "address",
          "name": "operator",
          "type": "address"
        },
        {
          "internalType": "uint256",
          "name": "tokenId",
          "type": "uint256"
        }
      ],
      "name": "ERC721InsufficientApproval",
      "type": "error"
    },
    {
      "inputs": [
        {
          "internalType": "address",
          "name": "approver",
          "type": "address"
        }
      ],
      "name": "ERC721InvalidApprover",
      "type": "error"
    },
    {
      "inputs": [
        {
          "internalType": "address",
          "name": "operator",
          "type": "address"
        }
      ],
      "name": "ERC721InvalidOperator",
      "type": "error"
    },
    {
      "inputs": [
        {
          "internalType": "address",
          "name": "owner",
          "type": "address"
        }
      ],
      "name": "ERC721InvalidOwner",
      "type": "error"
    },
    {
      "inputs": [
        {
          "internalType": "address",
          "name": "receiver",
          "type": "address"
        }
      ],
      "name": "ERC721InvalidReceiver",
      "type": "error"
    },
    {
      "inputs": [
        {
          "internalType": "address",
          "name": "sender",
          "type": "address"
        }
      ],
      "name": "ERC721InvalidSender",
      "type": "error"
    },
    {
      "inputs": [
        {
          "internalType": "uint256",
          "name": "tokenId",
          "type": "uint256"
        }
      ],
      "name": "ERC721NonexistentToken",
      "type": "error"
    },
    {
      "inputs": [
        {
          "internalType": "address",
          "name": "owner",
          "type": "address"
        }
      ],
      "name": "OwnableInvalidOwner",
      "type": "error"
    },
    {
      "inputs": [
        {
          "internalType": "address",
          "name": "account",
          "type": "address"
        }
      ],
      "name": "OwnableUnauthorizedAccount",
      "type": "error"
    },
    {
      "anonymous": false,
      "inputs": [
        {
          "indexed": true,
          "internalType": "address",
          "name": "owner",
          "type": "address"
        },
        {
          "indexed": true,
          "internalType": "address",
          "name": "approved",
          "type": "address"
        },
        {
          "indexed": true,
          "internalType": "uint256",
          "name": "tokenId",
          "type": "uint256"
        }
      ],
      "name": "Approval",
      "type": "event"
    },
    {
      "anonymous": false,
      "inputs": [
        {
          "indexed": true,
          "internalType": "address",
          "name": "owner",
          "type": "address"
        },
        {
          "indexed": true,
          "internalType": "address",
          "name": "operator",
          "type": "address"
        },
        {
          "indexed": false,
          "internalType": "bool",
          "name": "approved",
          "type": "bool"
        }
      ],
      "name": "ApprovalForAll",
      "type": "event"
    },
    {
      "anonymous": false,
      "inputs": [
        {
          "indexed": true,
          "internalType": "uint256",
          "name": "tokenId",
          "type": "uint256"
        },
        {
          "indexed": false,
          "internalType": "string",
          "name": "title",
          "type": "string"
        },
        {
          "indexed": false,
          "internalType": "uint256",
          "name": "price",
          "type": "uint256"
        }
      ],
      "name": "BlogPostCreated",
      "type": "event"
    },
    {
      "anonymous": false,
      "inputs": [
        {
          "indexed": true,
          "internalType": "uint256",
          "name": "tokenId",
          "type": "uint256"
        },
        {
          "indexed": true,
          "internalType": "address",
          "name": "minter",
          "type": "address"
        }
      ],
      "name": "BlogPostMinted",
      "type": "event"
    },
    {
      "anonymous": false,
      "inputs": [
        {
          "indexed": true,
          "internalType": "address",
          "name": "previousOwner",
          "type": "address"
        },
        {
          "indexed": true,
          "internalType": "address",
          "name": "newOwner",
          "type": "address"
        }
      ],
      "name": "OwnershipTransferred",
      "type": "event"
    },
    {
      "anonymous": false,
      "inputs": [
        {
          "indexed": true,
          "internalType": "address",
          "name": "from",
          "type": "address"
        },
        {
          "indexed": true,
          "internalType": "address",
          "name": "to",
          "type": "address"
        },
        {
          "indexed": true,
          "internalType": "uint256",
          "name": "tokenId",
          "type": "uint256"
        }
      ],
      "name": "Transfer",
      "type": "event"
    },
    {
      "inputs": [
        {
          "internalType": "address",
          "name": "to",
          "type": "address"
        },
        {
          "internalType": "uint256",
          "name": "tokenId",
          "type": "uint256"
        }
      ],
      "name": "approve",
      "outputs": [],
      "stateMutability": "nonpayable",
      "type": "function"
    },
    {
      "inputs": [
        {
          "internalType": "address",
          "name": "owner",
          "type": "address"
        }
      ],
      "name": "balanceOf",
      "outputs": [
        {
          "internalType": "uint256",
          "name": "",
          "type": "uint256"
        }
      ],
      "stateMutability": "view",
      "type": "function"
    },
    {
      "inputs": [
        {
          "internalType": "string",
          "name": "title",
          "type": "string"
        },
        {
          "internalType": "string",
          "name": "contentHash",
          "type": "string"
        },
        {
          "internalType": "uint256",
          "name": "price",
          "type": "uint256"
        }
      ],
      "name": "createBlogPost",
      "outputs": [],
      "stateMutability": "nonpayable",
      "type": "function"
    },
    {
      "inputs": [
        {
          "internalType": "uint256",
          "name": "tokenId",
          "type": "uint256"
        }
      ],
      "name": "getApproved",
      "outputs": [
        {
          "internalType": "address",
          "name": "",
          "type": "address"
        }
      ],
      "stateMutability": "view",
      "type": "function"
    },
    {
      "inputs": [
        {
          "internalType": "uint256",
          "name": "tokenId",
          "type": "uint256"
        }
      ],
      "name": "getBlogPost",
      "outputs": [
        {
          "components": [
            {
              "internalType": "string",
              "name": "title",
              "type": "string"
            },
            {
              "internalType": "uint256",
              "name": "publishDate",
              "type": "uint256"
            },
            {
              "internalType": "string",
              "name": "contentHash",
              "type": "string"
            },
            {
              "internalType": "uint256",
              "name": "price",
              "type": "uint256"
            },
            {
              "internalType": "bool",
              "name": "minted",
              "type": "bool"
            }
          ],
          "internalType": "struct MyBlogNFT.BlogPost",
          "name": "",
          "type": "tuple"
        }
      ],
      "stateMutability": "view",
      "type": "function"
    },
    {
      "inputs": [],
      "name": "getCurrentTokenId",
      "outputs": [
        {
          "internalType": "uint256",
          "name": "",
          "type": "uint256"
        }
      ],
      "stateMutability": "view",
      "type": "function"
    },
    {
      "inputs": [
        {
          "internalType": "address",
          "name": "owner",
          "type": "address"
        },
        {
          "internalType": "address",
          "name": "operator",
          "type": "address"
        }
      ],
      "name": "isApprovedForAll",
      "outputs": [
        {
          "internalType": "bool",
          "name": "",
          "type": "bool"
        }
      ],
      "stateMutability": "view",
      "type": "function"
    },
    {
      "inputs": [
        {
          "internalType": "uint256",
          "name": "tokenId",
          "type": "uint256"
        }
      ],
      "name": "mintBlogPost",
      "outputs": [],
      "stateMutability": "payable",
      "type": "function"
    },
    {
      "inputs": [],
      "name": "name",
      "outputs": [
        {
          "internalType": "string",
          "name": "",
          "type": "string"
        }
      ],
      "stateMutability": "view",
      "type": "function"
    },
    {
      "inputs": [],
      "name": "owner",
      "outputs": [
        {
          "internalType": "address",
          "name": "",
          "type": "address"
        }
      ],
      "stateMutability": "view",
      "type": "function"
    },
    {
      "inputs": [
        {
          "internalType": "uint256",
          "name": "tokenId",
          "type": "uint256"
        }
      ],
      "name": "ownerOf",
      "outputs": [
        {
          "internalType": "address",
          "name": "",
          "type": "address"
        }
      ],
      "stateMutability": "view",
      "type": "function"
    },
    {
      "inputs": [],
      "name": "renounceOwnership",
      "outputs": [],
      "stateMutability": "nonpayable",
      "type": "function"
    },
    {
      "inputs": [
        {
          "internalType": "address",
          "name": "from",
          "type": "address"
        },
        {
          "internalType": "address",
          "name": "to",
          "type": "address"
        },
        {
          "internalType": "uint256",
          "name": "tokenId",
          "type": "uint256"
        }
      ],
      "name": "safeTransferFrom",
      "outputs": [],
      "stateMutability": "nonpayable",
      "type": "function"
    },
    {
      "inputs": [
        {
          "internalType": "address",
          "name": "from",
          "type": "address"
        },
        {
          "internalType": "address",
          "name": "to",
          "type": "address"
        },
        {
          "internalType": "uint256",
          "name": "tokenId",
          "type": "uint256"
        },
        {
          "internalType": "bytes",
          "name": "data",
          "type": "bytes"
        }
      ],
      "name": "safeTransferFrom",
      "outputs": [],
      "stateMutability": "nonpayable",
      "type": "function"
    },
    {
      "inputs": [
        {
          "internalType": "address",
          "name": "operator",
          "type": "address"
        },
        {
          "internalType": "bool",
          "name": "approved",
          "type": "bool"
        }
      ],
      "name": "setApprovalForAll",
      "outputs": [],
      "stateMutability": "nonpayable",
      "type": "function"
    },
    {
      "inputs": [
        {
          "internalType": "bytes4",
          "name": "interfaceId",
          "type": "bytes4"
        }
      ],
      "name": "supportsInterface",
      "outputs": [
        {
          "internalType": "bool",
          "name": "",
          "type": "bool"
        }
      ],
      "stateMutability": "view",
      "type": "function"
    },
    {
      "inputs": [],
      "name": "symbol",
      "outputs": [
        {
          "internalType": "string",
          "name": "",
          "type": "string"
        }
      ],
      "stateMutability": "view",
      "type": "function"
    },
    {
      "inputs": [
        {
          "internalType": "uint256",
          "name": "tokenId",
          "type": "uint256"
        }
      ],
      "name": "tokenURI",
      "outputs": [
        {
          "internalType": "string",
          "name": "",
          "type": "string"
        }
      ],
      "stateMutability": "view",
      "type": "function"
    },
    {
      "inputs": [
        {
          "internalType": "address",
          "name": "from",
          "type": "address"
        },
        {
          "internalType": "address",
          "name": "to",
          "type": "address"
        },
        {
          "internalType": "uint256",
          "name": "tokenId",
          "type": "uint256"
        }
      ],
      "name": "transferFrom",
      "outputs": [],
      "stateMutability": "nonpayable",
      "type": "function"
    },
    {
      "inputs": [
        {
          "internalType": "address",
          "name": "newOwner",
          "type": "address"
        }
      ],
      "name": "transferOwnership",
      "outputs": [],
      "stateMutability": "nonpayable",
      "type": "function"
    },
    {
      "inputs": [],
      "name": "withdraw",
      "outputs": [],
      "stateMutability": "nonpayable",
      "type": "function"
    }
  ],
  "bytecode": "0x60806040523480156200001157600080fd5b506040516200331238038062003312833981810160405281019062000037919062000290565b806040518060400160405280600981526020017f4d79426c6f674e465400000000000000000000000000000000000000000000008152506040518060400160405280600481526020017f424c4f47000000000000000000000000000000000000000000000000000000008152508160009081620000b591906200053c565b508060019081620000c791906200053c565b505050600073ffffffffffffffffffffffffffffffffffffffff168173ffffffffffffffffffffffffffffffffffffffff16036200013f5760006040517f1e4fbdf700000000000000000000000000000000000000000000000000000000815260040162000136919062000634565b60405180910390fd5b62000150816200016060201b60201c565b5060006007819055505062000651565b6000600660009054906101000a900473ffffffffffffffffffffffffffffffffffffffff16905081600660006101000a81548173ffffffffffffffffffffffffffffffffffffffff021916908373ffffffffffffffffffffffffffffffffffffffff1602179055508173ffffffffffffffffffffffffffffffffffffffff168173ffffffffffffffffffffffffffffffffffffffff167f8be0079c531659141344cd1fd0a4f28419497f9722a3daafe3b4186f6b6457e060405160405180910390a35050565b600080fd5b600073ffffffffffffffffffffffffffffffffffffffff82169050919050565b600062000258826200022b565b9050919050565b6200026a816200024b565b81146200027657600080fd5b50565b6000815190506200028a816200025f565b92915050565b600060208284031215620002a957620002a862000226565b5b6000620002b98482850162000279565b91505092915050565b600081519050919050565b7f4e487b7100000000000000000000000000000000000000000000000000000000600052604160045260246000fd5b7f4e487b7100000000000000000000000000000000000000000000000000000000600052602260045260246000fd5b600060028204905060018216806200034457607f821691505b6020821081036200035a5762000359620002fc565b5b50919050565b60008190508160005260206000209050919050565b60006020601f8301049050919050565b600082821b905092915050565b600060088302620003c47fffffffffffffffffffffffffffffffffffffffffffffffffffffffffffffffff8262000385565b620003d0868362000385565b95508019841693508086168417925050509392505050565b6000819050919050565b6000819050919050565b60006200041d620004176200041184620003e8565b620003f2565b620003e8565b9050919050565b6000819050919050565b6200043983620003fc565b62000451620004488262000424565b84845462000392565b825550505050565b600090565b6200046862000459565b620004758184846200042e565b505050565b5b818110156200049d57620004916000826200045e565b6001810190506200047b565b5050565b601f821115620004ec57620004b68162000360565b620004c18462000375565b81016020851015620004d1578190505b620004e9620004e08562000375565b8301826200047a565b50505b505050565b600082821c905092915050565b60006200051160001984600802620004f1565b1980831691505092915050565b60006200052c8383620004fe565b9150826002028217905092915050565b6200054782620002c2565b67ffffffffffffffff811115620005635762000562620002cd565b5b6200056f82546200032b565b6200057c828285620004a1565b600060209050601f831160018114620005b457600084156200059f578287015190505b620005ab85826200051e565b8655506200061b565b601f198416620005c48662000360565b60005b82811015620005ee57848901518255600182019150602085019450602081019050620005c7565b868310156200060e57848901516200060a601f891682620004fe565b8355505b6001600288020188555050505b505050505050565b6200062e816200024b565b82525050565b60006020820190506200064b600083018462000623565b92915050565b612cb180620006616000396000f3fe60806040526004361061012a5760003560e01c8063715018a6116100ab578063b88d4fde1161006f578063b88d4fde146103bd578063c87b56dd146103e6578063e985e9c514610423578063ed6da23a14610460578063f220215814610489578063f2fde38b146104c65761012a565b8063715018a61461030b578063768e2577146103225780638da5cb5b1461033e57806395d89b4114610369578063a22cb465146103945761012a565b80633ccfd60b116100f25780633ccfd60b1461022657806342842e0e1461023d57806356189236146102665780636352211e1461029157806370a08231146102ce5761012a565b806301ffc9a71461012f57806306fdde031461016c578063081812fc14610197578063095ea7b3146101d457806323b872dd146101fd575b600080fd5b34801561013b57600080fd5b5061015660048036038101906101519190611d60565b6104ef565b6040516101639190611da8565b60405180910390f35b34801561017857600080fd5b506101816105d1565b60405161018e9190611e53565b60405180910390f35b3480156101a357600080fd5b506101be60048036038101906101b99190611eab565b610663565b6040516101cb9190611f19565b60405180910390f35b3480156101e057600080fd5b506101fb60048036038101906101f69190611f60565b61067f565b005b34801561020957600080fd5b50610224600480360381019061021f9190611fa0565b610695565b005b34801561023257600080fd5b5061023b610797565b005b34801561024957600080fd5b50610264600480360381019061025f9190611fa0565b6107f5565b005b34801561027257600080fd5b5061027b610815565b6040516102889190612002565b60405180910390f35b34801561029d57600080fd5b506102b860048036038101906102b39190611eab565b61081f565b6040516102c59190611f19565b60405180910390f35b3480156102da57600080fd5b506102f560048036038101906102f0919061201d565b610831565b6040516103029190612002565b60405180910390f35b34801561031757600080fd5b506103206108eb565b005b61033c60048036038101906103379190611eab565b6108ff565b005b34801561034a57600080fd5b50610353610a95565b6040516103609190611f19565b60405180910390f35b34801561037557600080fd5b5061037e610abf565b60405161038b9190611e53565b60405180910390f35b3480156103a057600080fd5b506103bb60048036038101906103b69190612076565b610b51565b005b3480156103c957600080fd5b506103e460048036038101906103df91906121eb565b610b67565b005b3480156103f257600080fd5b5061040d60048036038101906104089190611eab565b610b84565b60405161041a9190611e53565b60405180910390f35b34801561042f57600080fd5b5061044a6004803603810190610445919061226e565b610c39565b6040516104579190611da8565b60405180910390f35b34801561046c57600080fd5b506104876004803603810190610482919061234f565b610ccd565b005b34801561049557600080fd5b506104b060048036038101906104ab9190611eab565b610dd4565b6040516104bd91906124bf565b60405180910390f35b3480156104d257600080fd5b506104ed60048036038101906104e8919061201d565b610fad565b005b60007f80ac58cd000000000000000000000000000000000000000000000000000000007bffffffffffffffffffffffffffffffffffffffffffffffffffffffff1916827bffffffffffffffffffffffffffffffffffffffffffffffffffffffff191614806105ba57507f5b5e139f000000000000000000000000000000000000000000000000000000007bffffffffffffffffffffffffffffffffffffffffffffffffffffffff1916827bffffffffffffffffffffffffffffffffffffffffffffffffffffffff1916145b806105ca57506105c982611033565b5b9050919050565b6060600080546105e090612510565b80601f016020809104026020016040519081016040528092919081815260200182805461060c90612510565b80156106595780601f1061062e57610100808354040283529160200191610659565b820191906000526020600020905b81548152906001019060200180831161063c57829003601f168201915b5050505050905090565b600061066e8261109d565b5061067882611125565b9050919050565b610691828261068c611162565b61116a565b5050565b600073ffffffffffffffffffffffffffffffffffffffff168273ffffffffffffffffffffffffffffffffffffffff16036107075760006040517f64a0ae920000000000000000000000000000000000000000000000000000000081526004016106fe9190611f19565b60405180910390fd5b600061071b8383610716611162565b61117c565b90508373ffffffffffffffffffffffffffffffffffffffff168173ffffffffffffffffffffffffffffffffffffffff1614610791578382826040517f64283d7b00000000000000000000000000000000000000000000000000000000815260040161078893929190612541565b60405180910390fd5b50505050565b61079f611396565b60004790506107ac610a95565b73ffffffffffffffffffffffffffffffffffffffff166108fc829081150290604051600060405180830381858888f193505050501580156107f1573d6000803e3d6000fd5b5050565b61081083838360405180602001604052806000815250610b67565b505050565b6000600754905090565b600061082a8261109d565b9050919050565b60008073ffffffffffffffffffffffffffffffffffffffff168273ffffffffffffffffffffffffffffffffffffffff16036108a45760006040517f89c62b6400000000000000000000000000000000000000000000000000000000815260040161089b9190611f19565b60405180910390fd5b600360008373ffffffffffffffffffffffffffffffffffffffff1673ffffffffffffffffffffffffffffffffffffffff168152602001908152602001600020549050919050565b6108f3611396565b6108fd600061141d565b565b6000600860008381526020019081526020016000206001015403610958576040517f08c379a000000000000000000000000000000000000000000000000000000000815260040161094f906125c4565b60405180910390fd5b6008600082815260200190815260200160002060040160009054906101000a900460ff16156109bc576040517f08c379a00000000000000000000000000000000000000000000000000000000081526004016109b390612630565b60405180910390fd5b6008600082815260200190815260200160002060030154341015610a15576040517f08c379a0000000000000000000000000000000000000000000000000000000008152600401610a0c9061269c565b60405180910390fd5b610a1f33826114e3565b60016008600083815260200190815260200160002060040160006101000a81548160ff0219169083151502179055503373ffffffffffffffffffffffffffffffffffffffff16817f2bef70c10486970afaa6f723308e61882653d4b1d06f1669a7593ad6e16ead4760405160405180910390a350565b6000600660009054906101000a900473ffffffffffffffffffffffffffffffffffffffff16905090565b606060018054610ace90612510565b80601f0160208091040260200160405190810160405280929190818152602001828054610afa90612510565b8015610b475780601f10610b1c57610100808354040283529160200191610b47565b820191906000526020600020905b815481529060010190602001808311610b2a57829003601f168201915b5050505050905090565b610b63610b5c611162565b8383611501565b5050565b610b72848484610695565b610b7e84848484611670565b50505050565b6060600073ffffffffffffffffffffffffffffffffffffffff16610ba783611827565b73ffffffffffffffffffffffffffffffffffffffff1603610bfd576040517f08c379a0000000000000000000000000000000000000000000000000000000008152600401610bf49061272e565b60405180910390fd5b60086000838152602001908152602001600020600201604051602001610c23919061283d565b6040516020818303038152906040529050919050565b6000600560008473ffffffffffffffffffffffffffffffffffffffff1673ffffffffffffffffffffffffffffffffffffffff16815260200190815260200160002060008373ffffffffffffffffffffffffffffffffffffffff1673ffffffffffffffffffffffffffffffffffffffff16815260200190815260200160002060009054906101000a900460ff16905092915050565b610cd5611396565b600060075490506040518060a0016040528085815260200142815260200184815260200183815260200160001515815250600860008381526020019081526020016000206000820151816000019081610d2e91906129f6565b50602082015181600101556040820151816002019081610d4e91906129f6565b506060820151816003015560808201518160040160006101000a81548160ff021916908315150217905550905050807fa965cd19543b60f2d3b9f1ecbd7ef08e9c1392b5123b4057185f3112362b14b28584604051610dae929190612ac8565b60405180910390a260076000815480929190610dc990612b27565b919050555050505050565b610ddc611cc3565b6000600860008481526020019081526020016000206001015403610e35576040517f08c379a0000000000000000000000000000000000000000000000000000000008152600401610e2c906125c4565b60405180910390fd5b600860008381526020019081526020016000206040518060a0016040529081600082018054610e6390612510565b80601f0160208091040260200160405190810160405280929190818152602001828054610e8f90612510565b8015610edc5780601f10610eb157610100808354040283529160200191610edc565b820191906000526020600020905b815481529060010190602001808311610ebf57829003601f168201915b5050505050815260200160018201548152602001600282018054610eff90612510565b80601f0160208091040260200160405190810160405280929190818152602001828054610f2b90612510565b8015610f785780601f10610f4d57610100808354040283529160200191610f78565b820191906000526020600020905b815481529060010190602001808311610f5b57829003601f168201915b50505050508152602001600382015481526020016004820160009054906101000a900460ff1615151515815250509050919050565b610fb5611396565b600073ffffffffffffffffffffffffffffffffffffffff168173ffffffffffffffffffffffffffffffffffffffff16036110275760006040517f1e4fbdf700000000000000000000000000000000000000000000000000000000815260040161101e9190611f19565b60405180910390fd5b6110308161141d565b50565b60007f01ffc9a7000000000000000000000000000000000000000000000000000000007bffffffffffffffffffffffffffffffffffffffffffffffffffffffff1916827bffffffffffffffffffffffffffffffffffffffffffffffffffffffff1916149050919050565b6000806110a983611827565b9050600073ffffffffffffffffffffffffffffffffffffffff168173ffffffffffffffffffffffffffffffffffffffff160361111c57826040517f7e2732890000000000000000000000000000000000000000000000000000000081526004016111139190612002565b60405180910390fd5b80915050919050565b60006004600083815260200190815260200160002060009054906101000a900473ffffffffffffffffffffffffffffffffffffffff169050919050565b600033905090565b6111778383836001611864565b505050565b60008061118884611827565b9050600073ffffffffffffffffffffffffffffffffffffffff168373ffffffffffffffffffffffffffffffffffffffff16146111ca576111c9818486611a29565b5b600073ffffffffffffffffffffffffffffffffffffffff168173ffffffffffffffffffffffffffffffffffffffff161461125b5761120c600085600080611864565b6001600360008373ffffffffffffffffffffffffffffffffffffffff1673ffffffffffffffffffffffffffffffffffffffff168152602001908152602001600020600082825403925050819055505b600073ffffffffffffffffffffffffffffffffffffffff168573ffffffffffffffffffffffffffffffffffffffff16146112de576001600360008773ffffffffffffffffffffffffffffffffffffffff1673ffffffffffffffffffffffffffffffffffffffff168152602001908152602001600020600082825401925050819055505b846002600086815260200190815260200160002060006101000a81548173ffffffffffffffffffffffffffffffffffffffff021916908373ffffffffffffffffffffffffffffffffffffffff160217905550838573ffffffffffffffffffffffffffffffffffffffff168273ffffffffffffffffffffffffffffffffffffffff167fddf252ad1be2c89b69c2b068fc378daa952ba7f163c4a11628f55a4df523b3ef60405160405180910390a4809150509392505050565b61139e611162565b73ffffffffffffffffffffffffffffffffffffffff166113bc610a95565b73ffffffffffffffffffffffffffffffffffffffff161461141b576113df611162565b6040517f118cdaa70000000000000000000000000000000000000000000000000000000081526004016114129190611f19565b60405180910390fd5b565b6000600660009054906101000a900473ffffffffffffffffffffffffffffffffffffffff16905081600660006101000a81548173ffffffffffffffffffffffffffffffffffffffff021916908373ffffffffffffffffffffffffffffffffffffffff1602179055508173ffffffffffffffffffffffffffffffffffffffff168173ffffffffffffffffffffffffffffffffffffffff167f8be0079c531659141344cd1fd0a4f28419497f9722a3daafe3b4186f6b6457e060405160405180910390a35050565b6114fd828260405180602001604052806000815250611aed565b5050565b600073ffffffffffffffffffffffffffffffffffffffff168273ffffffffffffffffffffffffffffffffffffffff160361157257816040517f5b08ba180000000000000000000000000000000000000000000000000000000081526004016115699190611f19565b60405180910390fd5b80600560008573ffffffffffffffffffffffffffffffffffffffff1673ffffffffffffffffffffffffffffffffffffffff16815260200190815260200160002060008473ffffffffffffffffffffffffffffffffffffffff1673ffffffffffffffffffffffffffffffffffffffff16815260200190815260200160002060006101000a81548160ff0219169083151502179055508173ffffffffffffffffffffffffffffffffffffffff168373ffffffffffffffffffffffffffffffffffffffff167f17307eab39ab6107e8899845ad3d59bd9653f200f220920489ca2b5937696c31836040516116639190611da8565b60405180910390a3505050565b60008373ffffffffffffffffffffffffffffffffffffffff163b1115611821578273ffffffffffffffffffffffffffffffffffffffff1663150b7a026116b4611162565b8685856040518563ffffffff1660e01b81526004016116d69493929190612bc4565b6020604051808303816000875af192505050801561171257506040513d601f19601f8201168201806040525081019061170f9190612c25565b60015b611796573d8060008114611742576040519150601f19603f3d011682016040523d82523d6000602084013e611747565b606091505b50600081510361178e57836040517f64a0ae920000000000000000000000000000000000000000000000000000000081526004016117859190611f19565b60405180910390fd5b805181602001fd5b63150b7a0260e01b7bffffffffffffffffffffffffffffffffffffffffffffffffffffffff1916817bffffffffffffffffffffffffffffffffffffffffffffffffffffffff19161461181f57836040517f64a0ae920000000000000000000000000000000000000000000000000000000081526004016118169190611f19565b60405180910390fd5b505b50505050565b60006002600083815260200190815260200160002060009054906101000a900473ffffffffffffffffffffffffffffffffffffffff169050919050565b808061189d5750600073ffffffffffffffffffffffffffffffffffffffff168273ffffffffffffffffffffffffffffffffffffffff1614155b156119d15760006118ad8461109d565b9050600073ffffffffffffffffffffffffffffffffffffffff168373ffffffffffffffffffffffffffffffffffffffff161415801561191857508273ffffffffffffffffffffffffffffffffffffffff168173ffffffffffffffffffffffffffffffffffffffff1614155b801561192b57506119298184610c39565b155b1561196d57826040517fa9fbf51f0000000000000000000000000000000000000000000000000000000081526004016119649190611f19565b60405180910390fd5b81156119cf57838573ffffffffffffffffffffffffffffffffffffffff168273ffffffffffffffffffffffffffffffffffffffff167f8c5be1e5ebec7d5bd14f71427d1e84f3dd0314c0f7b2291e5b200ac8c7c3b92560405160405180910390a45b505b836004600085815260200190815260200160002060006101000a81548173ffffffffffffffffffffffffffffffffffffffff021916908373ffffffffffffffffffffffffffffffffffffffff16021790555050505050565b611a34838383611b09565b611ae857600073ffffffffffffffffffffffffffffffffffffffff168373ffffffffffffffffffffffffffffffffffffffff1603611aa957806040517f7e273289000000000000000000000000000000000000000000000000000000008152600401611aa09190612002565b60405180910390fd5b81816040517f177e802f000000000000000000000000000000000000000000000000000000008152600401611adf929190612c52565b60405180910390fd5b505050565b611af78383611bca565b611b046000848484611670565b505050565b60008073ffffffffffffffffffffffffffffffffffffffff168373ffffffffffffffffffffffffffffffffffffffff1614158015611bc157508273ffffffffffffffffffffffffffffffffffffffff168473ffffffffffffffffffffffffffffffffffffffff161480611b825750611b818484610c39565b5b80611bc057508273ffffffffffffffffffffffffffffffffffffffff16611ba883611125565b73ffffffffffffffffffffffffffffffffffffffff16145b5b90509392505050565b600073ffffffffffffffffffffffffffffffffffffffff168273ffffffffffffffffffffffffffffffffffffffff1603611c3c5760006040517f64a0ae92000000000000000000000000000000000000000000000000000000008152600401611c339190611f19565b60405180910390fd5b6000611c4a8383600061117c565b9050600073ffffffffffffffffffffffffffffffffffffffff168173ffffffffffffffffffffffffffffffffffffffff1614611cbe5760006040517f73c6ac6e000000000000000000000000000000000000000000000000000000008152600401611cb59190611f19565b60405180910390fd5b505050565b6040518060a00160405280606081526020016000815260200160608152602001600081526020016000151581525090565b6000604051905090565b600080fd5b600080fd5b60007fffffffff0000000000000000000000000000000000000000000000000000000082169050919050565b611d3d81611d08565b8114611d4857600080fd5b50565b600081359050611d5a81611d34565b92915050565b600060208284031215611d7657611d75611cfe565b5b6000611d8484828501611d4b565b91505092915050565b60008115159050919050565b611da281611d8d565b82525050565b6000602082019050611dbd6000830184611d99565b92915050565b600081519050919050565b600082825260208201905092915050565b60005b83811015611dfd578082015181840152602081019050611de2565b60008484015250505050565b6000601f19601f8301169050919050565b6000611e2582611dc3565b611e2f8185611dce565b9350611e3f818560208601611ddf565b611e4881611e09565b840191505092915050565b60006020820190508181036000830152611e6d8184611e1a565b905092915050565b6000819050919050565b611e8881611e75565b8114611e9357600080fd5b50565b600081359050611ea581611e7f565b92915050565b600060208284031215611ec157611ec0611cfe565b5b6000611ecf84828501611e96565b91505092915050565b600073ffffffffffffffffffffffffffffffffffffffff82169050919050565b6000611f0382611ed8565b9050919050565b611f1381611ef8565b82525050565b6000602082019050611f2e6000830184611f0a565b92915050565b611f3d81611ef8565b8114611f4857600080fd5b50565b600081359050611f5a81611f34565b92915050565b60008060408385031215611f7757611f76611cfe565b5b6000611f8585828601611f4b565b9250506020611f9685828601611e96565b9150509250929050565b600080600060608486031215611fb957611fb8611cfe565b5b6000611fc786828701611f4b565b9350506020611fd886828701611f4b565b9250506040611fe986828701611e96565b9150509250925092565b611ffc81611e75565b82525050565b60006020820190506120176000830184611ff3565b92915050565b60006020828403121561203357612032611cfe565b5b600061204184828501611f4b565b91505092915050565b61205381611d8d565b811461205e57600080fd5b50565b6000813590506120708161204a565b92915050565b6000806040838503121561208d5761208c611cfe565b5b600061209b85828601611f4b565b92505060206120ac85828601612061565b9150509250929050565b600080fd5b600080fd5b7f4e487b7100000000000000000000000000000000000000000000000000000000600052604160045260246000fd5b6120f882611e09565b810181811067ffffffffffffffff82111715612117576121166120c0565b5b80604052505050565b600061212a611cf4565b905061213682826120ef565b919050565b600067ffffffffffffffff821115612156576121556120c0565b5b61215f82611e09565b9050602081019050919050565b82818337600083830152505050565b600061218e6121898461213b565b612120565b9050828152602081018484840111156121aa576121a96120bb565b5b6121b584828561216c565b509392505050565b600082601f8301126121d2576121d16120b6565b5b81356121e284826020860161217b565b91505092915050565b6000806000806080858703121561220557612204611cfe565b5b600061221387828801611f4b565b945050602061222487828801611f4b565b935050604061223587828801611e96565b925050606085013567ffffffffffffffff81111561225657612255611d03565b5b612262878288016121bd565b91505092959194509250565b6000806040838503121561228557612284611cfe565b5b600061229385828601611f4b565b92505060206122a485828601611f4b565b9150509250929050565b600067ffffffffffffffff8211156122c9576122c86120c0565b5b6122d282611e09565b9050602081019050919050565b60006122f26122ed846122ae565b612120565b90508281526020810184848401111561230e5761230d6120bb565b5b61231984828561216c565b509392505050565b600082601f830112612336576123356120b6565b5b81356123468482602086016122df565b91505092915050565b60008060006060848603121561236857612367611cfe565b5b600084013567ffffffffffffffff81111561238657612385611d03565b5b61239286828701612321565b935050602084013567ffffffffffffffff8111156123b3576123b2611d03565b5b6123bf86828701612321565b92505060406123d086828701611e96565b9150509250925092565b600082825260208201905092915050565b60006123f682611dc3565b61240081856123da565b9350612410818560208601611ddf565b61241981611e09565b840191505092915050565b61242d81611e75565b82525050565b61243c81611d8d565b82525050565b600060a083016000830151848203600086015261245f82826123eb565b91505060208301516124746020860182612424565b506040830151848203604086015261248c82826123eb565b91505060608301516124a16060860182612424565b5060808301516124b46080860182612433565b508091505092915050565b600060208201905081810360008301526124d98184612442565b905092915050565b7f4e487b7100000000000000000000000000000000000000000000000000000000600052602260045260246000fd5b6000600282049050600182168061252857607f821691505b60208210810361253b5761253a6124e1565b5b50919050565b60006060820190506125566000830186611f0a565b6125636020830185611ff3565b6125706040830184611f0a565b949350505050565b7f426c6f6720706f737420646f6573206e6f742065786973740000000000000000600082015250565b60006125ae601883611dce565b91506125b982612578565b602082019050919050565b600060208201905081810360008301526125dd816125a1565b9050919050565b7f426c6f6720706f737420616c7265616479206d696e7465640000000000000000600082015250565b600061261a601883611dce565b9150612625826125e4565b602082019050919050565b600060208201905081810360008301526126498161260d565b9050919050565b7f496e73756666696369656e74207061796d656e74000000000000000000000000600082015250565b6000612686601483611dce565b915061269182612650565b602082019050919050565b600060208201905081810360008301526126b581612679565b9050919050565b7f4552433732314d657461646174613a2055524920717565727920666f72206e6f60008201527f6e6578697374656e7420746f6b656e0000000000000000000000000000000000602082015250565b6000612718602f83611dce565b9150612723826126bc565b604082019050919050565b600060208201905081810360008301526127478161270b565b9050919050565b600081905092915050565b7f68747470733a2f2f697066732e696f2f697066732f0000000000000000000000600082015250565b600061278f60158361274e565b915061279a82612759565b601582019050919050565b60008190508160005260206000209050919050565b600081546127c781612510565b6127d1818661274e565b945060018216600081146127ec576001811461280157612834565b60ff1983168652811515820286019350612834565b61280a856127a5565b60005b8381101561282c5781548189015260018201915060208101905061280d565b838801955050505b50505092915050565b600061284882612782565b915061285482846127ba565b915081905092915050565b60006020601f8301049050919050565b600082821b905092915050565b6000600883026128ac7fffffffffffffffffffffffffffffffffffffffffffffffffffffffffffffffff8261286f565b6128b6868361286f565b95508019841693508086168417925050509392505050565b6000819050919050565b60006128f36128ee6128e984611e75565b6128ce565b611e75565b9050919050565b6000819050919050565b61290d836128d8565b612921612919826128fa565b84845461287c565b825550505050565b600090565b612936612929565b612941818484612904565b505050565b5b818110156129655761295a60008261292e565b600181019050612947565b5050565b601f8211156129aa5761297b816127a5565b6129848461285f565b81016020851015612993578190505b6129a761299f8561285f565b830182612946565b50505b505050565b600082821c905092915050565b60006129cd600019846008026129af565b1980831691505092915050565b60006129e683836129bc565b9150826002028217905092915050565b6129ff82611dc3565b67ffffffffffffffff811115612a1857612a176120c0565b5b612a228254612510565b612a2d828285612969565b600060209050601f831160018114612a605760008415612a4e578287015190505b612a5885826129da565b865550612ac0565b601f198416612a6e866127a5565b60005b82811015612a9657848901518255600182019150602085019450602081019050612a71565b86831015612ab35784890151612aaf601f8916826129bc565b8355505b6001600288020188555050505b505050505050565b60006040820190508181036000830152612ae28185611e1a565b9050612af16020830184611ff3565b9392505050565b7f4e487b7100000000000000000000000000000000000000000000000000000000600052601160045260246000fd5b6000612b3282611e75565b91507fffffffffffffffffffffffffffffffffffffffffffffffffffffffffffffffff8203612b6457612b63612af8565b5b600182019050919050565b600081519050919050565b600082825260208201905092915050565b6000612b9682612b6f565b612ba08185612b7a565b9350612bb0818560208601611ddf565b612bb981611e09565b840191505092915050565b6000608082019050612bd96000830187611f0a565b612be66020830186611f0a565b612bf36040830185611ff3565b8181036060830152612c058184612b8b565b905095945050505050565b600081519050612c1f81611d34565b92915050565b600060208284031215612c3b57612c3a611cfe565b5b6000612c4984828501612c10565b91505092915050565b6000604082019050612c676000830185611f0a565b612c746020830184611ff3565b939250505056fea26469706673582212206851a220a66660c67e7a5a5c3528d7ade1e54f9fb7eeb53773e84bbc9d43669b64736f6c63430008180033",
  "linkReferences": {},
  "deployedLinkReferences": {}
}